:4000000080673030303030307e3030307e3030307e3030307e3030307e3030307e3030307e3030307e3030307d054b7e7d054c7e7e3030307e3030307e3030307e3030307a
:400040007e3030307e3030307e3030307e3030307e3030307e3030307e3030307e3030307e3030307e303030711062fa0062e38770ef50202850402850602862e33841fe08
:40008000fb50804e62e33855f80055f900711062e00270ef62e338627105627505627905627d0562d10750004e62d30762d00062d50062d40071c07c04e962d000500357cd
:4000c000e00828532118750900284b5121800475090062e300082860d574a04b1875090008285321187509000828a01c53201875090008283f214721ffb0065dd57460d5a9
:40010000187a20bfeb8fc9187509000828532050003f214721ffb0085dd57460d550007a20bfef188faa18711043e32070ef62e000711062e00343e78070ef62e2007c062a
:400140009d8fff50107f3030303030303030303030303030303030303030303030303030303030303030303030303030303030303030303030303030303030303030303095
:400180003030303030303030303030303030303030303030303030303030303030303030636c65617220636f756e746572200d0a006d6f6465203d20484558200d0a006d36
:4001c0006f6465203d20444543200d0a00433d30782578200d0a00433d2564200d0a002f002d002e002b0029002a006028660063056500e600e700d600b000b100b200b3df
:4002000033b433b501b600b855b900ba10bb33bc33bd00be00c000c100c220c333c433c500c600c855c900ca30cb33cc33cd00ce006c006d006e006f00ff2c052dd12e40ab
:40024000280d29012a4461006900600062006733683363006600d100d300d000d200e13fe200df19de00dd00e700ff00202020202020202020303030303020202020202076
:40028000202020202020202020202020904040404040404040404040404040400c0c0c0c0c0c0c0c0c0c4040404040404009090909090901010101010101010101010101f3
:4002c000010101010101014040404040400a0a0a0a0a0a020202020202020202020202020202020202020240404040200000000000000000000000000000000000000000f3
:4003000000000000000000000000000000000000000000000000000000000000000000000000000000000000000000000000000000000000000000000000000000000000bd
:400340000000000000000000000000000000000000000000000000000000000000000000000000000000000000000000286e756c6c20707472207061737365642900696e84
:400380007465676572206f6e6c79207072696e74662c2073656c6563742050726f6a6563742d3e4f7074696f6e732d3e5461726765742c224650207072696e746622207458
:4003c0006f207072696e7420666c6f6174696e6720706f696e74206e756d626572733e0011c10bf070ef62000071106200016201fe70ef6203fc62020371106202006203e5
:400400000070ef62010062040071106204006205ff70ef6207ff620600711062060062070070ef62050062080071106208006209ff70ef620bff620a007110620a00620bb0
:400440000070ef620900620c007110620c00620d0070ef620f00620e007110620e00620f0070ef620d00621000711062100062110070ef62130062120071106212006213ec
:400480000070ef621100621400711062140062150070ef621700621600711062160062170070ef621500621800711062180062190070ef621b00621a007110621a00621b2c
:4004c0000070ef621900621c007110621c00621d0070ef621f00621e007110621e00621f0070ef621d0070ef7f7c04f07c03e47f1070ef500067500157df7c050b50016745
:400500005002573a7c050b70ef207f380210084f56fc00d00456fc01182070ef62e30010082839ffa01f4f48fc01a003711054fd18207509001008284f59fd61001820756f
:4005400009008fd738fc703f71c07f7e7e43e10443e1087f41e1fb41e1f77f71102101a00743281070ef7f4128ef70ef7f2901602b602f7f412bfe412ffe7f60297f5d2b72
:400580007f5d2e7f5d2f7f210171103901a0064128ef800443281070ef7f082101a00643e108800441e1f7182102a00643e104800441e1fb7f3031323334353637383941df
:4005c00042434445460867676767210fffe7900f18210fffe090087f4b9fea5b9fe77f492b10affc60297f492f08affc5d2e7f5d2f082108b00418800b5d2e4b1821a0b0fd
:40060000034b7f50007f5d2f21e8082108b0071829014b80071821e04b5d2e7f70bf60d35200a0069fb9758ff8703f71c07f70bf62d3074f52fba01a7bfb52fc59fd60d304
:400640005200492b10affc60294f62d30777fd8fe4703f71c07f4f3dfa00b0063dfb00a01d1052fc59fd28492b10affc60292007fd010ffc0017fb011ffa008fdb703f71f4
:40068000c07f081028a00b9f56201875dff5748ff238fe7f500d9f47500a9f437f104f381e560500561b011050007c056d20812d77053d1b01b02662d0005205532050005d
:4006c0000851200850010850d7085a200620065007085120087c0c2238fa802462d0005205532050000851200850010850cd085a200620065007085120087c0c2238fa103e
:400700007c057e2062d000540462d0005204735321262110bfea5a200620061050070851205c187c061c205600005601005602005603000703010f02000f01000f0000bf91
:40074000f33d0102bfee3d0249bfe93d03f0bfe4107c05ef2062d000541a521a541d561c003d1c00b0063d1d43a0633d1c00b0063d1d44a0373d1c00b0063d1d48a03e52f3
:400780001d1143521c31801980c0523d1c00b0063d1d63a0393d1c00b0063d1d64a00d3d1c00b0063d1d68a0148032561b011050010850bf5c187c0682208021561b001004
:4007c00050010850b15c187c06822080101050010850a05c187c0682205605008ed338e2208fff104f7c07ee20703f71c07f5dd00862d0005000531a531b55191066fc6cd5
:40080000fb6b1a6b1b511a1bfa511b1bf9c009531b52fa1c1a77fc7a19bfe3511a54fa511b54f91860d07f531b2808511b75090028087f104f380952fa540352f954023dc0
:40084000f900b02f3dfa00b02a62d00052fc532052fb60d550303f2052fc0101532052fb090060d550003f2052fc532052fb5321819752fa110052f931801980d0293df785
:4008800000b0243df80ab01f56060162d00052037353205202735321512001015403512109005402800456060052fc540152fb540062d00052f70852f80852020852030804
:4008c0007c07e338fe18532018532151205408512154075009130852073180531b50801a1bc02862d000520153205200532151200101540151210900540052080130531f80
:40090000512160d5511f3f20802662d000520153205200532151200101540151210900540052080157531f512160d5511f3f2052f70852f80852020852030862d0007c079b
:40094000e318540318540238fe3d0200bf643d0300bf5f3d0600a02062d0005201532052005321512001015401512109005400512160d5502d3f2062d0005201532052009c
:400980005321512001ff5401512109ff5400512160d550003f2052fc540552fb5404805462d00052055320520460d43e2054065205532052045321512001015405512109a0
:4009c0000054045201531e520060d43e1e531f512160d5511f3f205201532052005321512001ff5401512109ff5400512160d552063f205205130152041b00cfa462d00012
:400a000052fc532052fb532138f7207f104f380752fc540152fb540062d00052f70852f80852f90852fa087c07e338fe1853201853215120540651215405500913065205f6
:400a40003180531b50801a1bc02862d000520153205200532151200101540151210900540052060130531f512160d5511f3f20802662d000520153205200532151200101cd
:400a8000540151210900540052060157531f512160d5511f3f2052f70852f80852f90852fa0862d0007c07e31854fa1854f938fe3df900bf643dfa00bf5f62d00052015311
:400ac0002052005321512001ff5401512109ff5400512160d550003f2052fc540352fb5402805462d00052035320520260d43e205404520353205202532151200101540378
:400b00005121090054025201531e520060d43e1e531f512160d5511f3f205201532052005321512001ff5401512109ff5400512160d552043f205203130152021b00cfa48f
:400b400062d00052fc532052fb532138f9207f104f62d00052fc016c532052fb090210582028205320552100262004262100207f104f62d00052fc016c532052fb090210ca
:400b8000582028205320552100262002262100207f104f62d00052fc016c532052fb090210582028205320552100262010262100207f104f52fb0852fc087c0b7038fe62b9
:400bc000d0003c2100b0063c2000a01862d00052fc1161532052fb190053210620410e2100800c62d00052fc532052fb5321207f104f62d000512308512262d0005321180c
:400c00005320010162d000532362d0005121090062d000532262d000512160d552fc3f20207f104f380262d00052fc532352fb532262d0005a2016200751205401560007c1
:400c400052000852010852f90852fa0850030850e2087c0c8b38fa62d000512308512262d0005321185320512160d550003f2062d000512313fc62d000532062d000512297
:400c80001bfb62d000532138fe207f104f381156050056040083c762d00052fa532052f910582028203925a02352fa532052f91058202820100852fc532052fb58207c08d3
:400cc0002738ff2077050f0400838e560a0056090056070056060056082077fa0ff90062d00052fa532052f910582028205410560f0052101158531a520f318019802a1a6b
:400d0000a0edd0225210114562d000531a520f31801980c0832a1aa3383d0f00b0063d1053a23280733d0f00b0063d1063a1f63d0f00b0063d1064a0843d0f00b0063d10f8
:400d400065a30e3d0f00b0063d1066a3043d0f00b0063d1069a0663d0f00b0063d106fa08e3d0f00b0063d1070a08452101163520f31801980c0213d0f00b0063d1073a2ae
:400d80004a3d0f00b0063d1075a0643d0f00b0063d1078a05a800162d00052fa532052f91058202820100852fc532052fb58207c082738ff2077050f0400829d07f8fe0f79
:400dc000f7ff62d00052f8532052f760d43e20540b3e20540c500008500a08520b08520c085206085207087c083338fa812f07f8fe0ff7ff62d00052f8532052f760d43e8b
:400e00002053213e20540c5121540b52fa532052f910582028203975b01a500008500a08520b08520c085206085207087c0a0c38fa80ea62d00052fa532052f910582028dd
:400e400020396fb01a500008500808520b08520c085206085207087c0a0c38fa80bf62d00052fa532052f910582028203970b0395207532052065321512001015407512123
:400e800009005406512160d550303f205207532052065321512001015407512109005406512160d550783f20500008501008520b08520c085206085207087c0a0c38fa62ce
:400ec000d00052fa532052f910582028203958b04c560100560000803362d00052015320520060d43e2053205000085120087c0bb238fe62d000512053215201531e52009f
:400f000060d551213f1e77010f000062d00052015320520060d43e203900bfbe56010056000080d207f8fe0ff7ff62d00052f8532052f760d43e203e20540d10520d085241
:400f4000fc532052fb58207c082738ff2077050f0400810507f8fe0ff7ff62d00052f8532052f760d43e2054023e2054033d082db04510502d0862d00052fc532052fb58bb
:400f8000207c082738ff2077050f0400802962d0005203532052021058202820100852fc532052fb58207c082738ff2077050f040077030f020062d00052035320520210a1
:400fc000582028203900bfc7808f07f8fe0ff7ff62d00052f8532052f760d43e2054003e2054013d0000b00e3d0100b00956036c5602038f793d082db04410502d0862d049
:401000000052fc532052fb58207c082738ff2077050f0400802862d00052015320520060d43e20100852fc532052fb58207c082738ff2077050f040077010f000062d0002d
:4010400052015320520060d43e203900bfc9800956037e5602038f1677fa0ff90062d00052fa532052f910582028203900bc29520553205204532138ef207f104f3804808d
:401080000677fc0ffb0062d00052fc532052fb105820282053205000085120087c0b9138fe62d0003c2100bfd93c2000bfd456030056020062d00052fc532052fb1058207c
:4010c0002820392db00e56030156020077fc0ffb00801862d00052fc532052fb1058202820392bb00677fc0ffb00560100560000807c62d00052fc532052fb532151200147
:401100000154fc5121090054fb5201531e5200531f551c0a551d00551b00551a003c1d00b0063c1c00a01a70fb6e1d6e1cd00c62d000511e041b511f0c1a651e6b1f8fdef3
:401140005f1e1b5f1f1a62d000512110582028205320552100511e02205320511f0a21532151201130540151211900540062d00052fc532052fb105820282053205000080e
:401180005120087c0b4f38fe62d0003c2100bf633c2000bf5e3d0200b0063d0300a01462d00052017311ff532052007319ff5321800c62d000520153205200532138fc202d
:4011c0007f000000190022020000ff003030303030303030303030303030303030303030303030303030303030303030303030303030303030303030303030303030303074
:4012000030303030303030303030303030303030303030303030303030303030303030303030303030303030303030303030303030303030303030303030303030303030ae
:40124000303030303030303030303030303030303030303030303030303030303030303030303030303030303030303030303030303030303030303030303030303030306e
:40128000303030303030303030303030303030303030303030303030303030303030303030303030303030303030303030303030303030303030303030303030303030302e
:4012c00030303030303030303030303030303030303030303030303030303030303030303030303030303030303030303030303030303030303030303030303030303030ee
:020000040010ea
:020000040020da
:02000000c2c379
:00000001ff
